:100000000C9434000C944B000C9449000C9449005F
:100010000C9449000C9449000C9449000C9449003C
:100020000C9449000C9449000C9449000C9449002C
:100030000C9449000C9449000C9449000C9449001C
:100040000C9449000C9449000C9449000C9449000C
:100050000C9449000C9449000C9449000C944900FC
:100060000C9449000C94490011241FBECFEFD8E036
:10007000DEBFCDBF11E0A0E0B1E0E8E5F1E002C0F5
:1000800005900D92A632B107D9F70E9490000C940A
:10009000AA000C94000018958093C4009093C500AA
:1000A00088E08093C10086E08093C200089590911B
:1000B000C00095FFFCCF8093C6000895CF93DF93D7
:1000C000EC018991811103C0DF91CF9108950E94C5
:1000D0005700F7CF84B1846284B985B18B7D85B92F
:1000E00052985A9AE9E6F0E080818C7F8083E89A02
:1000F0000895EAE7F0E080818F77808383B7857F7A
:1001000083BF83B7846083BF83B7816083BF7894E4
:10011000889583B78E7F83BF8081806880830895B0
:1001200087E690E00E944C000E946A0080E091E027
:100130000E945E000E94790085E191E00E945E00CD
:100140004A9B04C085B18B7D85B9F0CF85B18462AF
:0801500085B9F6CFF894FFCF4A
:100158005374617475733A2053656570696E672EC0
:100168002E2E0D0A005374617475733A204177611D
:060178006B65210D0A0079
:00000001FF
